:100000000C9435000C945D000C945D000C945D0024
:100010000C945D000C945D000C945D000C945D00EC
:100020000C945D000C945D000C945D000C945D00DC
:100030000C945D000C945D000C945D000C945D00CC
:100040000C94AC010C945D000C941C020C94F60111
:100050000C945D000C945D000C945D000C945D00AC
:100060000C945D000C945D004E0211241FBECFEF76
:10007000D8E0DEBFCDBF11E0A0E0B1E0E0E2F5E006
:1000800002C005900D92A231B107D9F721E0A2E19B
:10009000B1E001C01D92A83BB207E1F710E0C5E353
:1000A000D0E004C02197FE010E948802C433D1072A
:1000B000C9F70E947B020C9480020C940000FC01A2
:1000C000538D448D252F30E0842F90E0821B930BBD
:1000D000541710F0CF96089501970895FC01918D63
:1000E000828D981761F0828DDF01A80FB11D5D969A
:1000F0008C91928D9F5F9F73928F90E008958FEF08
:100100009FEF0895FC01918D828D981731F0828DBB
:10011000E80FF11D858D90E008958FEF9FEF089512
:10012000FC01918D228D892F90E0805C9F4F821B76
:1001300091098F7399270895FC01848DDF01A80F21
:10014000B11DA35ABF4F2C91848D90E001968F73FF
:100150009927848FA689B7892C93A089B1898C911E
:10016000837080648C93938D848D981306C002886D
:10017000F389E02D80818F7D80830895EF92FF9237
:100180000F931F93CF93DF93EC0181E0888F9B8DBA
:100190008C8D981305C0E889F989808185FD26C07A
:1001A000F62E0B8D10E00F5F1F4F0F731127E02EFF
:1001B0008C8DE8120CC00FB607FCFACFE889F989DC
:1001C000808185FFF5CFCE010E949C00F1CF8B8D01
:1001D000FE01E80FF11DE35AFF4FF0829FB7F8943C
:1001E0000B8FEA89FB89808180620AC09FB7F894EF
:1001F000EE89FF896083E889F98980818370806452
:1002000080839FBF81E090E0DF91CF911F910F919C
:10021000FF90EF900895CF93DF93EC01888D8823B2
:10022000C9F0EA89FB89808185FD05C0A889B98963
:100230008C9186FD0FC00FB607FCF5CF808185FF3E
:10024000F2CFA889B9898C9185FFEDCFCE010E94AC
:100250009C00E7CFDF91CF91089582E191E00E9469
:10026000900021E0892B09F420E0822F089580E09E
:1002700090E0892B29F00E942D0181110C9400003F
:100280000895789484B5826084BD84B5816084BD0E
:1002900085B5826085BD85B5816085BDEEE6F0E0FF
:1002A000808181608083E1E8F0E01082808182605B
:1002B0008083808181608083E0E8F0E080818160DC
:1002C0008083E1EBF0E0808184608083E0EBF0E00C
:1002D000808181608083EAE7F0E0808184608083B0
:1002E000808182608083808181608083808180685A
:1002F00080831092C1000895CF92DF92EF92FF9217
:100300000F931F93CF93DF936C017A018B01C0E0B1
:10031000D0E0CE15DF0581F0D8016D918D01D601B9
:10032000ED91FC910190F081E02DC6010995892B9A
:1003300011F02196EECF7E01C701DF91CF911F9181
:100340000F91FF90EF90DF90CF900895089580E097
:1003500090E008950E9483021F920F920FB60F92B1
:1003600011242F933F938F939F93AF93BF938091CB
:10037000B4019091B501A091B601B091B70130914F
:10038000B30123E0230F2D3720F40196A11DB11DE9
:1003900005C026E8230F0296A11DB11D2093B301CD
:1003A0008093B4019093B501A093B601B093B701C7
:1003B0008091AF019091B001A091B101B091B201D3
:1003C0000196A11DB11D8093AF019093B001A09340
:1003D000B101B093B201BF91AF919F918F913F91C5
:1003E0002F910F900FBE0F901F9018951F920F9294
:1003F0000FB60F9211242F933F934F935F936F93F8
:100400007F938F939F93AF93BF93EF93FF9382E17B
:1004100091E00E949C00FF91EF91BF91AF919F915D
:100420008F917F916F915F914F913F912F910F909D
:100430000FBE0F901F9018951F920F920FB60F923C
:1004400011242F938F939F93EF93FF93E0912201B9
:10045000F09123018081E0912801F091290182FD32
:1004600012C0908180912B018F5F8F7320912C019E
:10047000821751F0E0912B01F0E0EE5EFE4F958F78
:1004800080932B0101C08081FF91EF919F918F910B
:100490002F910F900FBE0F901F901895E2E1F1E0A1
:1004A0001382128288EE93E0A0E0B0E0848395830B
:1004B000A683B78384E091E09183808385EC90E00C
:1004C0009587848784EC90E09787868780EC90E01E
:1004D000918B808B81EC90E0938B828B82EC90E00F
:1004E000958B848B86EC90E0978B868B118E128E89
:1004F000138E148E08950E9441010E943701FDCF92
:10050000F8940C948E0281E090E0F8940C948E02A2
:10051000EE0FFF1F0590F491E02D0994F894FFCFA2
:1005200000000000BE007C015F000B0190006E0027
:02053000820047
:00000001FF
